:100000000C9463000C94ED010C9480000C9480001F
:100010000C9480000C9480000C9480000C94800060
:100020000C9480000C9480000C9480000C94800050
:100030000C9480000C9480000C9480000C94800040
:100040000C9480000C9480000C9480000C94800030
:100050000C9480000C9480000C9480000C94800020
:100060000C9480000C9480000902120001010080B1
:100070003209040000000000000012011001FF001E
:100080000008C016DC050001010200011C03490044
:1000900044002000350038003100300035003000C9
:1000A00034003500330031001A036300700065002E
:1000B0002E006B0075002E00610063002E0074009E
:1000C00068000403090411241FBECFEFD4E0DEBF93
:1000D000CDBF11E0A0E0B1E0ECE2F6E002C0059097
:1000E0000D92A230B107D9F711E0A2E0B1E001C052
:1000F0001D92AE32B107E1F70E9401030C94140384
:100100000C940000CF93FC01C181C11105C0628134
:1001100084810E94AC0013C0C23081F486B183FB9D
:10012000992790F981E089278093020182E091E08C
:100130009093130180931201C1E001C0C0E08C2FA5
:10014000CF91089587B1876087B988B1887F88B9D2
:100150003B98439A3C98089548B121E030E06623EB
:1001600049F0B90102C0660F771F8A95E2F7CB010B
:10017000842B09C0B90102C0660F771F8A95E2F788
:10018000CB018095842388B9089598B1987F98B958
:1001900098B18770982B98B908958F708064809378
:1001A0007C0087EC80937A0080917A0086FDFCCFFA
:1001B000209178008091790090E0982F8827820F15
:1001C000911D08950895CF93DF938091140183507A
:1001D00087FD8AC090911101209110012D3209F004
:1001E00081C0883009F07EC0CCE0D0E0C91BD109C5
:1001F000C85EDE4F83EC809304018AE580930101A1
:10020000109203018881807621F0CE010E94820045
:1002100060C08A8110920D019981911106C01092DF
:100220000E012DE031E082E050C0953019F480934A
:1002300015013DC09630A9F59B81913019F48AE7EC
:1002400090E004C0923041F488E690E0909313016E
:100250008093120182E121C09330F1F4811108C032
:1002600082EC90E0909313018093120184E015C01A
:10027000813041F488EA90E0909313018093120159
:100280008AE10BC0823041F48CE890E09093130136
:10029000809312018CE101C080E090E4909303010F
:1002A00018C0983079F0993031F4809317012DE01F
:1002B00031E080E00AC081E09A3009F080E02DE072
:1002C00031E003C027E131E081E030931301209356
:1002D00012019F81911104C09E81981708F4892F03
:1002E00080930001109214018091010184FF48C0A5
:1002F000809100018F3F09F443C0C82F893008F076
:10030000C8E08C1B809300019091040188E8892744
:1003100080930401CC2339F1809112019091130153
:100320002091030126FF0BC0A5E0B1E0FC012C2FBA
:10033000280F34913D9331962E13FBCF09C0DC0179
:10034000E5E0F1E02C2F2E0F3D9131932E13FCCFE1
:100350002FEF2C0F30E02F5F3F4F820F931F9093B2
:100360001301809312016C2F85E091E00E94E90156
:10037000CC5FCC3019F08FEF80930001C093010166
:1003800084E199B1947131F48150D9F7109215013B
:1003900010920F01DF91CF910895E9E6F0E080819E
:1003A00082608083E89A0895A82FB92F80E090E0BA
:1003B00041E050EA609530E009C02D918227979581
:1003C000879510F084279527305EC8F36F5FA8F3F8
:1003D0000895EADF8D939D930895CF93CFB7CF9380
:1003E000DF93C3954C9BE9F74C9B0BC04C9B09C01A
:1003F0004C9B07C04C9B05C04C9B03C04C9B01C051
:1004000089C06F93C0911101DD27C85EDE4F2F9325
:1004100065E54C9B03C02F916F91E6CF0F931F931F
:100420004F9320E040E15F9309B1047104FB27F989
:100430003F9350E03BE039C0147140642F77012FA7
:100440005F5F1EC0406819B114712F7752501FC0F2
:10045000406409B12F770471D1F15F5F00C023C000
:10046000406219B12F77147191F15F5F00C025C010
:1004700004711027515012F45D5F00001150279550
:100480002C3F19B1C8F614710127015027952C3F54
:10049000C8F64227499309B1047110274F731150D0
:1004A00027952C3FA8F64695469519B1147179F019
:1004B0000127015027952C3F98F66B5A60F3315075
:1004C00009B1B0F600C011E01CBB002717C03B50BB
:1004D0003195C31BD04011E01CBB0881033CF9F0EF
:1004E0000B34E9F020910F011981110F1213EDCF98
:1004F000093651F10D3211F0013E39F70093160122
:100500003F915F914F911F910F912F916F91CCB3BC
:10051000C0FD67CFDF91CF91CFBFCF9118952091CC
:100520001601222369F310911401112339F5343097
:100530003AF13093140120931001109111013BE026
:10054000311B309311011CC0009114010130B4F42F
:100550000AE53091010134FD14C000930101C4E0AB
:10056000D1E013C0052710E000C000000BB91AC08D
:10057000052710E0221F1DC010E021C04AE502C07F
:1005800032ED432FC4E1D0E032E01AB114615C9A3D
:100590000BB11AB954E120E865E320FF05270BB938
:1005A000279517951C3FF0F66695B8F7B1F720FF31
:1005B00005270BB9279517951C3FD0F6279517955A
:1005C00017FF052700001C3F0BB9B0F629913A959B
:1005D00019F70B7E10911501110FC651D0400BB9C0
:1005E00011F010930F0111E01CBB00611AB11B7ECA
:1005F000402F4B7E54E05A95F1F70BB91AB94BB91D
:100600007FCF0E94A2000E94CD01549A2FEF85EA6D
:100610009EE0215080409040E1F700C000005498D7
:0C06200078940E94E300FDCFF894FFCF17
:02062C00FF5A73
:00000001FF
