:100000000C9463000C94D8010C9480000C94800034
:100010000C9480000C9480000C9480000C94800060
:100020000C9480000C9480000C9480000C94800050
:100030000C9480000C9480000C9480000C94800040
:100040000C9480000C9480000C9480000C94800030
:100050000C9480000C9480000C9480000C94800020
:100060000C9480000C9480000902120001010080B1
:100070003209040000000000000012011001FF001E
:100080000008C016DC050001010200011C03490044
:1000900044002000350038003100300035003000C9
:1000A00034003500330031001A036300700065002E
:1000B0002E006B0075002E00610063002E0074009E
:1000C00068000403090411241FBECFEFD4E0DEBF93
:1000D000CDBF11E0A0E0B1E0E2E0F6E002C00590A3
:1000E0000D92A230B107D9F711E0A2E0B1E001C052
:1000F0001D92AD32B107E1F70E94EC020C94FF02B1
:100100000C940000FC012181211104C062818481D2
:100110000E94990080E0089587B18F6387B988B104
:10012000807C88B984B1836084B985B18C7F85B9BE
:1001300008958630C8F448B121E030E0662349F0E4
:10014000B90102C0660F771F8A95E2F7CB01842BB5
:1001500009C0B90102C0660F771F8A95E2F7CB018B
:100160008095842388B90895865045B121E030E018
:10017000662349F0B90102C0660F771F8A95E2F73E
:10018000CB01842B09C0B90102C0660F771F8A9585
:10019000E2F7CB018095842385B90895CF93DF934F
:1001A00080911301835087FD8AC0909110012091A6
:1001B0000F012D3209F081C0883009F07EC0CCE0FB
:1001C000D0E0C91BD109C95EDE4F83EC80930301E7
:1001D0008AE580930101109202018881807621F0E6
:1001E000CE010E94820060C08A8110920C01998128
:1001F000911106C010920D012CE031E082E050C058
:10020000953019F4809314013DC09630A9F59B8177
:10021000913019F48AE790E004C0923041F488E606
:1002200090E0909312018093110182E121C09330FC
:10023000F1F4811108C082EC90E090931201809358
:10024000110184E015C0813041F488EA90E0909378
:100250001201809311018AE10BC0823041F48CE8D5
:1002600090E090931201809311018CE101C080E035
:1002700090E49093020118C0983079F0993031F4ED
:10028000809316012CE031E080E00AC081E09A30D2
:1002900009F080E02CE031E003C026E131E081E0AC
:1002A00030931201209311019F81911104C09E810E
:1002B000981708F4892F8093000110921301809100
:1002C000010184FF48C0809100018F3F09F443C0C1
:1002D000C82F893008F0C8E08C1B809300019091F2
:1002E000030188E8892780930301CC2339F18091A9
:1002F0001101909112012091020126FF0BC0A4E090
:10030000B1E0FC012C2F280F34913D9331962E1330
:10031000FBCF09C0DC01E4E0F1E02C2F2E0F3D9172
:1003200031932E13FCCF2FEF2C0F30E02F5F3F4F78
:10033000820F931F90931201809311016C2F84E020
:1003400091E00E94D401CC5FCC3019F08FEF809304
:100350000001C093010184E199B1947131F481509D
:10036000D9F71092140110920E01DF91CF910895E8
:10037000E9E6F0E0808182608083E89A0895A82F02
:10038000B92F80E090E041E050EA609530E009C08C
:100390002D9182279795879510F084279527305EB9
:1003A000C8F36F5FA8F30895EADF8D939D930895D6
:1003B000CF93CFB7CF93DF93C3954C9BE9F74C9B7B
:1003C0000BC04C9B09C04C9B07C04C9B05C04C9B71
:1003D00003C04C9B01C089C06F93C0911001DD2701
:1003E000C95EDE4F2F9365E54C9B03C02F916F9143
:1003F000E6CF0F931F934F9320E040E15F9309B145
:10040000047104FB27F93F9350E03BE039C01471BD
:1004100040642F77012F5F5F1EC0406819B11471CF
:100420002F7752501FC0406409B12F770471D1F16A
:100430005F5F00C023C0406219B12F77147191F142
:100440005F5F00C025C004711027515012F45D5F3A
:100450000000115027952C3F19B1C8F614710127DF
:10046000015027952C3FC8F64227499309B10471E2
:1004700010274F73115027952C3FA8F646954695A7
:1004800019B1147179F00127015027952C3F98F686
:100490006B5A60F3315009B1B0F600C011E01CBBDB
:1004A000002717C03B503195C31BD04011E01CBB47
:1004B0000881033CF9F00B34E9F020910E01198119
:1004C000110F1213EDCF093651F10D3211F0013E2B
:1004D00039F7009315013F915F914F911F910F9153
:1004E0002F916F91CCB3C0FD67CFDF91CF91CFBF7C
:1004F000CF91189520911501222369F310911301D2
:10050000112339F534303AF13093130120930F0160
:10051000109110013BE0311B309310011CC0009181
:1005200013010130B4F40AE53091010134FD14C027
:1005300000930101C3E0D1E013C0052710E000C023
:1005400000000BB91AC0052710E0221F1DC010E0E3
:1005500021C04AE502C032ED432FC4E1D0E032E0D1
:100560001AB114615C9A0BB11AB954E120E865E341
:1005700020FF05270BB9279517951C3FF0F66695C8
:10058000B8F7B1F720FF05270BB9279517951C3F42
:10059000D0F62795179517FF052700001C3F0BB9CC
:1005A000B0F629913A9519F70B7E10911401110FAD
:1005B000C651D0400BB911F010930E0111E01CBBD5
:1005C00000611AB11B7E402F4B7E54E05A95F1F723
:1005D0000BB91AB94BB97FCF0E948C000E94B801A9
:1005E000549A2FEF85EA9EE0215080409040E1F739
:1005F00000C00000549878940E94CE00FDCFF8947B
:02060000FFCF2A
:02060200FF5A9D
:00000001FF
