:100000000C9463000C9403020C9480000C94800008
:100010000C9480000C9480000C9480000C94800060
:100020000C9480000C9480000C9480000C94800050
:100030000C9480000C9480000C9480000C94800040
:100040000C9480000C9480000C9480000C94800030
:100050000C9480000C9480000C9480000C94800020
:100060000C9480000C9480000902120001010080B1
:100070003209040000000000000012011001FF001E
:100080000008C016DC050001010200011C03490044
:1000900044002000350038003100300035003000C9
:1000A00034003500330031001A036300700065002E
:1000B0002E006B0075002E00610063002E0074009E
:1000C00068000403090411241FBECFEFD4E0DEBF93
:1000D000CDBF11E0A0E0B1E0E8E5F6E002C0059098
:1000E0000D92A230B107D9F711E0A2E0B1E001C052
:1000F0001D92AF32B107E1F70E9417030C942A0357
:100100000C940000CF93FC01C181C11105C0628134
:1001100084810E94C00027C0C13021F482810E94E6
:10012000D90020C0C23081F486B183FB992790F9B1
:1001300081E089278093030183E091E0909314018B
:1001400080931301C1E00FC0C33061F40E94F60038
:100150008093020182E091E0909314018093130157
:10016000C2E001C0C0E08C2FCF91089587B18760B5
:1001700087B988B1887F88B93B98439A3C9808959D
:1001800048B121E030E0662349F0B90102C0660FB2
:10019000771F8A95E2F7CB01842B09C0B90102C011
:1001A000660F771F8A95E2F7CB018095842388B983
:1001B000089598B1987F98B998B18770982B98B99D
:1001C00008958F70806480937C0087EC80937A0020
:1001D00080917A0086FDFCCF209178008091790093
:1001E00090E0982F8827820F911D089584E00C9449
:1001F000E100CF93DF9380911501835087FD8AC082
:1002000090911201209111012D3209F081C08830A6
:1002100009F07EC0CCE0D0E0C91BD109C75EDE4F3B
:1002200083EC809305018AE580930101109204011B
:100230008881807621F0CE010E94820060C08A8190
:1002400010920E019981911106C010920F012EE0BB
:1002500031E082E050C0953019F4809316013DC022
:100260009630A9F59B81913019F48AE790E004C09B
:10027000923041F488E690E090931401809313014A
:1002800082E121C09330F1F4811108C082EC90E04A
:10029000909314018093130184E015C0813041F4E0
:1002A00088EA90E090931401809313018AE10BC0D7
:1002B000823041F48CE890E0909314018093130114
:1002C0008CE101C080E090E49093040118C0983064
:1002D00079F0993031F4809318012EE031E080E01C
:1002E0000AC081E09A3009F080E02EE031E003C0DE
:1002F00028E131E081E030931401209313019F81C4
:10030000911104C09E81981708F4892F80930001F1
:10031000109215018091010184FF48C08091000175
:100320008F3F09F443C0C82F893008F0C8E08C1B08
:10033000809300019091050188E889278093050149
:10034000CC2339F180911301909114012091040183
:1003500026FF0BC0A6E0B1E0FC012C2F280F349142
:100360003D9331962E13FBCF09C0DC01E6E0F1E0AE
:100370002C2F2E0F3D9131932E13FCCF2FEF2C0FEE
:1003800030E02F5F3F4F820F931F909314018093B3
:1003900013016C2F86E091E00E94FF01CC5FCC300E
:1003A00019F08FEF80930001C093010184E199B1AE
:1003B000947131F48150D9F7109216011092100106
:1003C000DF91CF910895E9E6F0E08081826080833B
:1003D000E89A0895A82FB92F80E090E041E050EA14
:1003E000609530E009C02D9182279795879510F090
:1003F00084279527305EC8F36F5FA8F30895EADF7E
:100400008D939D930895CF93CFB7CF93DF93C395EB
:100410004C9BE9F74C9B0BC04C9B09C04C9B07C005
:100420004C9B05C04C9B03C04C9B01C089C06F9383
:10043000C0911201DD27C75EDE4F2F9365E54C9B0F
:1004400003C02F916F91E6CF0F931F934F9320E03E
:1004500040E15F9309B1047104FB27F93F9350E039
:100460003BE039C0147140642F77012F5F5F1EC0DD
:10047000406819B114712F7752501FC0406409B100
:100480002F770471D1F15F5F00C023C0406219B1C2
:100490002F77147191F15F5F00C025C004711027A0
:1004A000515012F45D5F0000115027952C3F19B197
:1004B000C8F614710127015027952C3FC8F6422732
:1004C000499309B1047110274F73115027952C3FA0
:1004D000A8F64695469519B1147179F00127015097
:1004E00027952C3F98F66B5A60F3315009B1B0F65E
:1004F00000C011E01CBB002717C03B503195C31B47
:10050000D04011E01CBB0881033CF9F00B34E9F04A
:10051000209110011981110F1213EDCF093651F1FD
:100520000D3211F0013E39F7009317013F915F91B1
:100530004F911F910F912F916F91CCB3C0FD67CF59
:10054000DF91CF91CFBFCF91189520911701222332
:1005500069F310911501112339F534303AF13093D4
:10056000150120931101109112013BE0311B3093D2
:1005700012011CC0009115010130B4F40AE530915C
:10058000010134FD14C000930101C5E0D1E013C0A6
:10059000052710E000C000000BB91AC0052710E0C5
:1005A000221F1DC010E021C04AE502C032ED432FDA
:1005B000C4E1D0E032E01AB114615C9A0BB11AB90F
:1005C00054E120E865E320FF05270BB9279517952F
:1005D0001C3FF0F66695B8F7B1F720FF05270BB979
:1005E000279517951C3FD0F62795179517FF0527D8
:1005F00000001C3F0BB9B0F629913A9519F70B7E14
:1006000010911601110FC651D0400BB911F0109383
:10061000100111E01CBB00611AB11B7E402F4B7E04
:1006200054E05A95F1F70BB91AB94BB97FCF0E9434
:10063000B6000E94E301549A2FEF85EA9EE0215014
:1006400080409040E1F700C00000549878940E94E8
:08065000F900FDCFF894FFCF83
:02065800FF5A47
:00000001FF
